{
  "_format": "hh-sol-artifact-1",
  "contractName": "CalyptusNFT",
  "sourceName": "src/CalyptusNFT.sol",
  "abi": [
    {
      "inputs": [],
      "stateMutability": "nonpayable",
      "type": "constructor"
    },
    {
      "inputs": [
        {
          "internalType": "address",
          "name": "target",
          "type": "address"
        }
      ],
      "name": "AddressEmptyCode",
      "type": "error"
    },
    {
      "inputs": [],
      "name": "CalyptusNFT_TransferNotAllowed",
      "type": "error"
    },
    {
      "inputs": [
        {
          "internalType": "address",
          "name": "implementation",
          "type": "address"
        }
      ],
      "name": "ERC1967InvalidImplementation",
      "type": "error"
    },
    {
      "inputs": [],
      "name": "ERC1967NonPayable",
      "type": "error"
    },
    {
      "inputs": [
        {
          "internalType": "address",
          "name": "sender",
          "type": "address"
        },
        {
          "internalType": "uint256",
          "name": "tokenId",
          "type": "uint256"
        },
        {
          "internalType": "address",
          "name": "owner",
          "type": "address"
        }
      ],
      "name": "ERC721IncorrectOwner",
      "type": "error"
    },
    {
      "inputs": [
        {
          "internalType": "address",
          "name": "operator",
          "type": "address"
        },
        {
          "internalType": "uint256",
          "name": "tokenId",
          "type": "uint256"
        }
      ],
      "name": "ERC721InsufficientApproval",
      "type": "error"
    },
    {
      "inputs": [
        {
          "internalType": "address",
          "name": "approver",
          "type": "address"
        }
      ],
      "name": "ERC721InvalidApprover",
      "type": "error"
    },
    {
      "inputs": [
        {
          "internalType": "address",
          "name": "operator",
          "type": "address"
        }
      ],
      "name": "ERC721InvalidOperator",
      "type": "error"
    },
    {
      "inputs": [
        {
          "internalType": "address",
          "name": "owner",
          "type": "address"
        }
      ],
      "name": "ERC721InvalidOwner",
      "type": "error"
    },
    {
      "inputs": [
        {
          "internalType": "address",
          "name": "receiver",
          "type": "address"
        }
      ],
      "name": "ERC721InvalidReceiver",
      "type": "error"
    },
    {
      "inputs": [
        {
          "internalType": "address",
          "name": "sender",
          "type": "address"
        }
      ],
      "name": "ERC721InvalidSender",
      "type": "error"
    },
    {
      "inputs": [
        {
          "internalType": "uint256",
          "name": "tokenId",
          "type": "uint256"
        }
      ],
      "name": "ERC721NonexistentToken",
      "type": "error"
    },
    {
      "inputs": [],
      "name": "EnforcedPause",
      "type": "error"
    },
    {
      "inputs": [],
      "name": "ExpectedPause",
      "type": "error"
    },
    {
      "inputs": [],
      "name": "FailedInnerCall",
      "type": "error"
    },
    {
      "inputs": [],
      "name": "InvalidInitialization",
      "type": "error"
    },
    {
      "inputs": [],
      "name": "NotInitializing",
      "type": "error"
    },
    {
      "inputs": [
        {
          "internalType": "address",
          "name": "owner",
          "type": "address"
        }
      ],
      "name": "OwnableInvalidOwner",
      "type": "error"
    },
    {
      "inputs": [
        {
          "internalType": "address",
          "name": "account",
          "type": "address"
        }
      ],
      "name": "OwnableUnauthorizedAccount",
      "type": "error"
    },
    {
      "inputs": [],
      "name": "UUPSUnauthorizedCallContext",
      "type": "error"
    },
    {
      "inputs": [
        {
          "internalType": "bytes32",
          "name": "slot",
          "type": "bytes32"
        }
      ],
      "name": "UUPSUnsupportedProxiableUUID",
      "type": "error"
    },
    {
      "anonymous": false,
      "inputs": [
        {
          "indexed": true,
          "internalType": "address",
          "name": "owner",
          "type": "address"
        },
        {
          "indexed": true,
          "internalType": "address",
          "name": "approved",
          "type": "address"
        },
        {
          "indexed": true,
          "internalType": "uint256",
          "name": "tokenId",
          "type": "uint256"
        }
      ],
      "name": "Approval",
      "type": "event"
    },
    {
      "anonymous": false,
      "inputs": [
        {
          "indexed": true,
          "internalType": "address",
          "name": "owner",
          "type": "address"
        },
        {
          "indexed": true,
          "internalType": "address",
          "name": "operator",
          "type": "address"
        },
        {
          "indexed": false,
          "internalType": "bool",
          "name": "approved",
          "type": "bool"
        }
      ],
      "name": "ApprovalForAll",
      "type": "event"
    },
    {
      "anonymous": false,
      "inputs": [
        {
          "indexed": false,
          "internalType": "uint256",
          "name": "_fromTokenId",
          "type": "uint256"
        },
        {
          "indexed": false,
          "internalType": "uint256",
          "name": "_toTokenId",
          "type": "uint256"
        }
      ],
      "name": "BatchMetadataUpdate",
      "type": "event"
    },
    {
      "anonymous": false,
      "inputs": [
        {
          "indexed": false,
          "internalType": "uint64",
          "name": "version",
          "type": "uint64"
        }
      ],
      "name": "Initialized",
      "type": "event"
    },
    {
      "anonymous": false,
      "inputs": [
        {
          "indexed": false,
          "internalType": "uint256",
          "name": "_tokenId",
          "type": "uint256"
        }
      ],
      "name": "MetadataUpdate",
      "type": "event"
    },
    {
      "anonymous": false,
      "inputs": [
        {
          "indexed": true,
          "internalType": "address",
          "name": "previousOwner",
          "type": "address"
        },
        {
          "indexed": true,
          "internalType": "address",
          "name": "newOwner",
          "type": "address"
        }
      ],
      "name": "OwnershipTransferStarted",
      "type": "event"
    },
    {
      "anonymous": false,
      "inputs": [
        {
          "indexed": true,
          "internalType": "address",
          "name": "previousOwner",
          "type": "address"
        },
        {
          "indexed": true,
          "internalType": "address",
          "name": "newOwner",
          "type": "address"
        }
      ],
      "name": "OwnershipTransferred",
      "type": "event"
    },
    {
      "anonymous": false,
      "inputs": [
        {
          "indexed": false,
          "internalType": "address",
          "name": "account",
          "type": "address"
        }
      ],
      "name": "Paused",
      "type": "event"
    },
    {
      "anonymous": false,
      "inputs": [
        {
          "indexed": true,
          "internalType": "address",
          "name": "from",
          "type": "address"
        },
        {
          "indexed": true,
          "internalType": "address",
          "name": "to",
          "type": "address"
        },
        {
          "indexed": true,
          "internalType": "uint256",
          "name": "tokenId",
          "type": "uint256"
        }
      ],
      "name": "Transfer",
      "type": "event"
    },
    {
      "anonymous": false,
      "inputs": [
        {
          "indexed": false,
          "internalType": "address",
          "name": "account",
          "type": "address"
        }
      ],
      "name": "Unpaused",
      "type": "event"
    },
    {
      "anonymous": false,
      "inputs": [
        {
          "indexed": true,
          "internalType": "address",
          "name": "implementation",
          "type": "address"
        }
      ],
      "name": "Upgraded",
      "type": "event"
    },
    {
      "inputs": [],
      "name": "UPGRADE_INTERFACE_VERSION",
      "outputs": [
        {
          "internalType": "string",
          "name": "",
          "type": "string"
        }
      ],
      "stateMutability": "view",
      "type": "function"
    },
    {
      "inputs": [],
      "name": "acceptOwnership",
      "outputs": [],
      "stateMutability": "nonpayable",
      "type": "function"
    },
    {
      "inputs": [
        {
          "internalType": "address",
          "name": "to",
          "type": "address"
        },
        {
          "internalType": "uint256",
          "name": "tokenId",
          "type": "uint256"
        }
      ],
      "name": "approve",
      "outputs": [],
      "stateMutability": "nonpayable",
      "type": "function"
    },
    {
      "inputs": [
        {
          "internalType": "address",
          "name": "owner",
          "type": "address"
        }
      ],
      "name": "balanceOf",
      "outputs": [
        {
          "internalType": "uint256",
          "name": "",
          "type": "uint256"
        }
      ],
      "stateMutability": "view",
      "type": "function"
    },
    {
      "inputs": [
        {
          "internalType": "uint256",
          "name": "tokenId",
          "type": "uint256"
        }
      ],
      "name": "burn",
      "outputs": [],
      "stateMutability": "nonpayable",
      "type": "function"
    },
    {
      "inputs": [
        {
          "internalType": "uint256",
          "name": "tokenId",
          "type": "uint256"
        }
      ],
      "name": "getApproved",
      "outputs": [
        {
          "internalType": "address",
          "name": "",
          "type": "address"
        }
      ],
      "stateMutability": "view",
      "type": "function"
    },
    {
      "inputs": [
        {
          "internalType": "address",
          "name": "initialOwner",
          "type": "address"
        }
      ],
      "name": "initialize",
      "outputs": [],
      "stateMutability": "nonpayable",
      "type": "function"
    },
    {
      "inputs": [
        {
          "internalType": "address",
          "name": "owner",
          "type": "address"
        },
        {
          "internalType": "address",
          "name": "operator",
          "type": "address"
        }
      ],
      "name": "isApprovedForAll",
      "outputs": [
        {
          "internalType": "bool",
          "name": "",
          "type": "bool"
        }
      ],
      "stateMutability": "view",
      "type": "function"
    },
    {
      "inputs": [],
      "name": "name",
      "outputs": [
        {
          "internalType": "string",
          "name": "",
          "type": "string"
        }
      ],
      "stateMutability": "view",
      "type": "function"
    },
    {
      "inputs": [],
      "name": "nextTokenId",
      "outputs": [
        {
          "internalType": "uint256",
          "name": "",
          "type": "uint256"
        }
      ],
      "stateMutability": "view",
      "type": "function"
    },
    {
      "inputs": [],
      "name": "owner",
      "outputs": [
        {
          "internalType": "address",
          "name": "",
          "type": "address"
        }
      ],
      "stateMutability": "view",
      "type": "function"
    },
    {
      "inputs": [
        {
          "internalType": "uint256",
          "name": "tokenId",
          "type": "uint256"
        }
      ],
      "name": "ownerOf",
      "outputs": [
        {
          "internalType": "address",
          "name": "",
          "type": "address"
        }
      ],
      "stateMutability": "view",
      "type": "function"
    },
    {
      "inputs": [],
      "name": "pause",
      "outputs": [],
      "stateMutability": "nonpayable",
      "type": "function"
    },
    {
      "inputs": [],
      "name": "paused",
      "outputs": [
        {
          "internalType": "bool",
          "name": "",
          "type": "bool"
        }
      ],
      "stateMutability": "view",
      "type": "function"
    },
    {
      "inputs": [],
      "name": "pendingOwner",
      "outputs": [
        {
          "internalType": "address",
          "name": "",
          "type": "address"
        }
      ],
      "stateMutability": "view",
      "type": "function"
    },
    {
      "inputs": [],
      "name": "proxiableUUID",
      "outputs": [
        {
          "internalType": "bytes32",
          "name": "",
          "type": "bytes32"
        }
      ],
      "stateMutability": "view",
      "type": "function"
    },
    {
      "inputs": [],
      "name": "renounceOwnership",
      "outputs": [],
      "stateMutability": "nonpayable",
      "type": "function"
    },
    {
      "inputs": [
        {
          "internalType": "address",
          "name": "to",
          "type": "address"
        },
        {
          "internalType": "string",
          "name": "uri",
          "type": "string"
        }
      ],
      "name": "safeMint",
      "outputs": [],
      "stateMutability": "nonpayable",
      "type": "function"
    },
    {
      "inputs": [
        {
          "internalType": "address",
          "name": "from",
          "type": "address"
        },
        {
          "internalType": "address",
          "name": "to",
          "type": "address"
        },
        {
          "internalType": "uint256",
          "name": "tokenId",
          "type": "uint256"
        }
      ],
      "name": "safeTransferFrom",
      "outputs": [],
      "stateMutability": "nonpayable",
      "type": "function"
    },
    {
      "inputs": [
        {
          "internalType": "address",
          "name": "from",
          "type": "address"
        },
        {
          "internalType": "address",
          "name": "to",
          "type": "address"
        },
        {
          "internalType": "uint256",
          "name": "tokenId",
          "type": "uint256"
        },
        {
          "internalType": "bytes",
          "name": "data",
          "type": "bytes"
        }
      ],
      "name": "safeTransferFrom",
      "outputs": [],
      "stateMutability": "nonpayable",
      "type": "function"
    },
    {
      "inputs": [
        {
          "internalType": "address",
          "name": "operator",
          "type": "address"
        },
        {
          "internalType": "bool",
          "name": "approved",
          "type": "bool"
        }
      ],
      "name": "setApprovalForAll",
      "outputs": [],
      "stateMutability": "nonpayable",
      "type": "function"
    },
    {
      "inputs": [
        {
          "internalType": "bytes4",
          "name": "interfaceId",
          "type": "bytes4"
        }
      ],
      "name": "supportsInterface",
      "outputs": [
        {
          "internalType": "bool",
          "name": "",
          "type": "bool"
        }
      ],
      "stateMutability": "view",
      "type": "function"
    },
    {
      "inputs": [],
      "name": "symbol",
      "outputs": [
        {
          "internalType": "string",
          "name": "",
          "type": "string"
        }
      ],
      "stateMutability": "view",
      "type": "function"
    },
    {
      "inputs": [
        {
          "internalType": "uint256",
          "name": "tokenId",
          "type": "uint256"
        }
      ],
      "name": "tokenURI",
      "outputs": [
        {
          "internalType": "string",
          "name": "",
          "type": "string"
        }
      ],
      "stateMutability": "view",
      "type": "function"
    },
    {
      "inputs": [
        {
          "internalType": "address",
          "name": "from",
          "type": "address"
        },
        {
          "internalType": "address",
          "name": "to",
          "type": "address"
        },
        {
          "internalType": "uint256",
          "name": "tokenId",
          "type": "uint256"
        }
      ],
      "name": "transferFrom",
      "outputs": [],
      "stateMutability": "nonpayable",
      "type": "function"
    },
    {
      "inputs": [
        {
          "internalType": "address",
          "name": "newOwner",
          "type": "address"
        }
      ],
      "name": "transferOwnership",
      "outputs": [],
      "stateMutability": "nonpayable",
      "type": "function"
    },
    {
      "inputs": [],
      "name": "unpause",
      "outputs": [],
      "stateMutability": "nonpayable",
      "type": "function"
    },
    {
      "inputs": [
        {
          "internalType": "uint256",
          "name": "tokenId",
          "type": "uint256"
        },
        {
          "internalType": "string",
          "name": "uri",
          "type": "string"
        }
      ],
      "name": "updateURI",
      "outputs": [],
      "stateMutability": "nonpayable",
      "type": "function"
    },
    {
      "inputs": [
        {
          "internalType": "address",
          "name": "newImplementation",
          "type": "address"
        },
        {
          "internalType": "bytes",
          "name": "data",
          "type": "bytes"
        }
      ],
      "name": "upgradeToAndCall",
      "outputs": [],
      "stateMutability": "payable",
      "type": "function"
    }
  ],
  "bytecode": "0x60a0604052306080523480156200001557600080fd5b506200002062000026565b620000da565b7ff0c57e16840df040f15088dc2f81fe391c3923bec73e23a9662efc9c229c6a00805468010000000000000000900460ff1615620000775760405163f92ee8a960e01b815260040160405180910390fd5b80546001600160401b0390811614620000d75780546001600160401b0319166001600160401b0390811782556040519081527fc7f505b2f371ae2175ee4913f4499e1f2633a7b5936321eed1cdaeb6115181d29060200160405180910390a15b50565b608051612e7f62000104600039600081816110f30152818161111c01526113380152612e7f6000f3fe6080604052600436106101c25760003560e01c8063715018a6116100f7578063ad3cb1cc11610095578063d204c45e11610064578063d204c45e1461050f578063e30c39781461052f578063e985e9c514610544578063f2fde38b146105b957600080fd5b8063ad3cb1cc14610466578063b88d4fde146104af578063c4d66de8146104cf578063c87b56dd146104ef57600080fd5b80638456cb59116100d15780638456cb59146104075780638da5cb5b1461041c57806395d89b4114610431578063a22cb4651461044657600080fd5b8063715018a6146103c757806375794a3c146103dc57806379ba5097146103f257600080fd5b806342842e0e1161016457806352d1902d1161013e57806352d1902d1461032d5780635c975abb146103505780636352211e1461038757806370a08231146103a757600080fd5b806342842e0e146102da57806342966c68146102fa5780634f1ef2861461031a57600080fd5b8063095ea7b3116101a0578063095ea7b31461026357806323b872dd1461028557806331d41c69146102a55780633f4ba83a146102c557600080fd5b806301ffc9a7146101c757806306fdde03146101fc578063081812fc1461021e575b600080fd5b3480156101d357600080fd5b506101e76101e23660046127dc565b6105d9565b60405190151581526020015b60405180910390f35b34801561020857600080fd5b506102116105ea565b6040516101f39190612867565b34801561022a57600080fd5b5061023e61023936600461287a565b6106a0565b60405173ffffffffffffffffffffffffffffffffffffffff90911681526020016101f3565b34801561026f57600080fd5b5061028361027e3660046128bc565b6106f5565b005b34801561029157600080fd5b506102836102a03660046128e6565b610704565b3480156102b157600080fd5b506102836102c03660046129fc565b6107fa565b3480156102d157600080fd5b5061028361080c565b3480156102e657600080fd5b506102836102f53660046128e6565b61081e565b34801561030657600080fd5b5061028361031536600461287a565b61083e565b610283610328366004612a43565b61084a565b34801561033957600080fd5b50610342610865565b6040519081526020016101f3565b34801561035c57600080fd5b507fcd5ed15c6e187e77e9aee88184c21f4f2182ab5827cb3b7e07fbedcd63f033005460ff166101e7565b34801561039357600080fd5b5061023e6103a236600461287a565b610894565b3480156103b357600080fd5b506103426103c2366004612a7b565b61089f565b3480156103d357600080fd5b50610283610940565b3480156103e857600080fd5b5061034260005481565b3480156103fe57600080fd5b50610283610952565b34801561041357600080fd5b506102836109cd565b34801561042857600080fd5b5061023e6109dd565b34801561043d57600080fd5b50610211610a1f565b34801561045257600080fd5b50610283610461366004612a96565b610a70565b34801561047257600080fd5b506102116040518060400160405280600581526020017f352e302e3000000000000000000000000000000000000000000000000000000081525081565b3480156104bb57600080fd5b506102836104ca366004612ad2565b610a7b565b3480156104db57600080fd5b506102836104ea366004612a7b565b610a92565b3480156104fb57600080fd5b5061021161050a36600461287a565b610c80565b34801561051b57600080fd5b5061028361052a366004612a43565b610c8b565b34801561053b57600080fd5b5061023e610cbc565b34801561055057600080fd5b506101e761055f366004612b3a565b73ffffffffffffffffffffffffffffffffffffffff91821660009081527f80bb2b638cc20bc4d0a60d66940f3ab4a00c1d7b313497ca82fb0b4ab00793056020908152604080832093909416825291909152205460ff1690565b3480156105c557600080fd5b506102836105d4366004612a7b565b610ce5565b60006105e482610d9c565b92915050565b7f80bb2b638cc20bc4d0a60d66940f3ab4a00c1d7b313497ca82fb0b4ab0079300805460609190819061061c90612b6d565b80601f016020809104026020016040519081016040528092919081815260200182805461064890612b6d565b80156106955780601f1061066a57610100808354040283529160200191610695565b820191906000526020600020905b81548152906001019060200180831161067857829003601f168201915b505050505091505090565b60006106ab82610df2565b5060008281527f80bb2b638cc20bc4d0a60d66940f3ab4a00c1d7b313497ca82fb0b4ab0079304602052604090205473ffffffffffffffffffffffffffffffffffffffff166105e4565b610700828233610e70565b5050565b73ffffffffffffffffffffffffffffffffffffffff8216610759576040517f64a0ae92000000000000000000000000000000000000000000000000000000008152600060048201526024015b60405180910390fd5b6000610766838333610e7d565b90508373ffffffffffffffffffffffffffffffffffffffff168173ffffffffffffffffffffffffffffffffffffffff16146107f4576040517f64283d7b00000000000000000000000000000000000000000000000000000000815273ffffffffffffffffffffffffffffffffffffffff80861660048301526024820184905282166044820152606401610750565b50505050565b610802610f73565b6107008282610fcb565b610814610f73565b61081c61103e565b565b61083983838360405180602001604052806000815250610a7b565b505050565b61070060008233610e7d565b6108526110db565b61085b826111df565b61070082826111e7565b600061086f611320565b507f360894a13ba1a3210667c828492db98dca3e2076cc3735a920a3ca505d382bbc90565b60006105e482610df2565b60007f80bb2b638cc20bc4d0a60d66940f3ab4a00c1d7b313497ca82fb0b4ab007930073ffffffffffffffffffffffffffffffffffffffff8316610912576040517f89c62b6400000000000000000000000000000000000000000000000000000000815260006004820152602401610750565b73ffffffffffffffffffffffffffffffffffffffff9092166000908152600390920160205250604090205490565b610948610f73565b61081c600061138f565b338061095c610cbc565b73ffffffffffffffffffffffffffffffffffffffff16146109c1576040517f118cdaa700000000000000000000000000000000000000000000000000000000815273ffffffffffffffffffffffffffffffffffffffff82166004820152602401610750565b6109ca8161138f565b50565b6109d5610f73565b61081c6113df565b6000807f9016d09d72d40fdae2fd8ceac6b6234c7706214fd39c1cd1e609a0528c1993005b5473ffffffffffffffffffffffffffffffffffffffff1692915050565b7f80bb2b638cc20bc4d0a60d66940f3ab4a00c1d7b313497ca82fb0b4ab007930180546060917f80bb2b638cc20bc4d0a60d66940f3ab4a00c1d7b313497ca82fb0b4ab00793009161061c90612b6d565b610700338383611458565b610a86848484610704565b6107f484848484611579565b7ff0c57e16840df040f15088dc2f81fe391c3923bec73e23a9662efc9c229c6a00805468010000000000000000810460ff16159067ffffffffffffffff16600081158015610add5750825b905060008267ffffffffffffffff166001148015610afa5750303b155b905081158015610b08575080155b15610b3f576040517ff92ee8a900000000000000000000000000000000000000000000000000000000815260040160405180910390fd5b84547fffffffffffffffffffffffffffffffffffffffffffffffff00000000000000001660011785558315610ba05784547fffffffffffffffffffffffffffffffffffffffffffffff00ffffffffffffffff16680100000000000000001785555b610bee6040518060400160405280600881526020017f43616c797074757300000000000000000000000000000000000000000000000081525060405180602001604052806000815250611770565b610bf6611782565b610bfe61178a565b610c078661179a565b610c0f611782565b610c17611782565b8315610c785784547fffffffffffffffffffffffffffffffffffffffffffffff00ffffffffffffffff168555604051600181527fc7f505b2f371ae2175ee4913f4499e1f2633a7b5936321eed1cdaeb6115181d29060200160405180910390a15b505050505050565b60606105e4826117ab565b610c93610f73565b600080548180610ca283612bc0565b919050559050610cb283826118e0565b6108398183610fcb565b6000807f237e158222e3e6968b72b9db0d8043aacf074ad9f650f0d1606b4d82ee432c00610a02565b610ced610f73565b7f237e158222e3e6968b72b9db0d8043aacf074ad9f650f0d1606b4d82ee432c0080547fffffffffffffffffffffffff00000000000000000000000000000000000000001673ffffffffffffffffffffffffffffffffffffffff83169081178255610d566109dd565b73ffffffffffffffffffffffffffffffffffffffff167f38d16b8cac22d99fc7c124b9cd0de2d3fa1faef420bfe791d8c362d765e2270060405160405180910390a35050565b60007fffffffff0000000000000000000000000000000000000000000000000000000082167f490649060000000000000000000000000000000000000000000000000000000014806105e457506105e4826118fa565b60008181527f80bb2b638cc20bc4d0a60d66940f3ab4a00c1d7b313497ca82fb0b4ab0079302602052604081205473ffffffffffffffffffffffffffffffffffffffff16806105e4576040517f7e27328900000000000000000000000000000000000000000000000000000000815260048101849052602401610750565b61083983838360016119dd565b6000610e87611be9565b6000610e916109dd565b60008581527f80bb2b638cc20bc4d0a60d66940f3ab4a00c1d7b313497ca82fb0b4ab0079302602052604090205490915073ffffffffffffffffffffffffffffffffffffffff9081169082168114801590610f01575073ffffffffffffffffffffffffffffffffffffffff811615155b8015610f22575073ffffffffffffffffffffffffffffffffffffffff861615155b15610f59576040517fdac5b18100000000000000000000000000000000000000000000000000000000815260040160405180910390fd5b6000610f66878787611c45565b93505050505b9392505050565b33610f7c6109dd565b73ffffffffffffffffffffffffffffffffffffffff161461081c576040517f118cdaa7000000000000000000000000000000000000000000000000000000008152336004820152602401610750565b60008281527f0542a41881ee128a365a727b282c86fa859579490b9bb45aab8503648c8e7900602081905260409091206110058382612c65565b506040518381527ff8e1a15aba9398e019f0b49df1a4fde98ee17ae345cb5f6b5e2c27f5033e8ce79060200160405180910390a1505050565b611046611c62565b7fcd5ed15c6e187e77e9aee88184c21f4f2182ab5827cb3b7e07fbedcd63f0330080547fffffffffffffffffffffffffffffffffffffffffffffffffffffffffffffff001681557f5db9ee0a495bf2e6ff9c91a7834c1ba4fdd244a5e8aa4e537bd38aeae4b073aa335b60405173ffffffffffffffffffffffffffffffffffffffff909116815260200160405180910390a150565b3073ffffffffffffffffffffffffffffffffffffffff7f00000000000000000000000000000000000000000000000000000000000000001614806111a857507f000000000000000000000000000000000000000000000000000000000000000073ffffffffffffffffffffffffffffffffffffffff1661118f7f360894a13ba1a3210667c828492db98dca3e2076cc3735a920a3ca505d382bbc5473ffffffffffffffffffffffffffffffffffffffff1690565b73ffffffffffffffffffffffffffffffffffffffff1614155b1561081c576040517fe07c8dba00000000000000000000000000000000000000000000000000000000815260040160405180910390fd5b6109ca610f73565b8173ffffffffffffffffffffffffffffffffffffffff166352d1902d6040518163ffffffff1660e01b8152600401602060405180830381865afa92505050801561126c575060408051601f3d9081017fffffffffffffffffffffffffffffffffffffffffffffffffffffffffffffffe016820190925261126991810190612d7f565b60015b6112ba576040517f4c9c8ce300000000000000000000000000000000000000000000000000000000815273ffffffffffffffffffffffffffffffffffffffff83166004820152602401610750565b7f360894a13ba1a3210667c828492db98dca3e2076cc3735a920a3ca505d382bbc8114611316576040517faa1d49a400000000000000000000000000000000000000000000000000000000815260048101829052602401610750565b6108398383611cbd565b3073ffffffffffffffffffffffffffffffffffffffff7f0000000000000000000000000000000000000000000000000000000000000000161461081c576040517fe07c8dba00000000000000000000000000000000000000000000000000000000815260040160405180910390fd5b7f237e158222e3e6968b72b9db0d8043aacf074ad9f650f0d1606b4d82ee432c0080547fffffffffffffffffffffffff000000000000000000000000000000000000000016815561070082611d20565b6113e7611be9565b7fcd5ed15c6e187e77e9aee88184c21f4f2182ab5827cb3b7e07fbedcd63f0330080547fffffffffffffffffffffffffffffffffffffffffffffffffffffffffffffff001660011781557f62e78cea01bee320cd4e420270b5ea74000d11b0c9f74754ebdbfc544b05a258336110b0565b7f80bb2b638cc20bc4d0a60d66940f3ab4a00c1d7b313497ca82fb0b4ab007930073ffffffffffffffffffffffffffffffffffffffff83166114de576040517f5b08ba1800000000000000000000000000000000000000000000000000000000815273ffffffffffffffffffffffffffffffffffffffff84166004820152602401610750565b73ffffffffffffffffffffffffffffffffffffffff848116600081815260058401602090815260408083209488168084529482529182902080547fffffffffffffffffffffffffffffffffffffffffffffffffffffffffffffff001687151590811790915591519182527f17307eab39ab6107e8899845ad3d59bd9653f200f220920489ca2b5937696c31910160405180910390a350505050565b73ffffffffffffffffffffffffffffffffffffffff83163b156107f4576040517f150b7a0200000000000000000000000000000000000000000000000000000000815273ffffffffffffffffffffffffffffffffffffffff84169063150b7a02906115ee903390889087908790600401612d98565b6020604051808303816000875af1925050508015611647575060408051601f3d9081017fffffffffffffffffffffffffffffffffffffffffffffffffffffffffffffffe016820190925261164491810190612de1565b60015b6116d6573d808015611675576040519150601f19603f3d011682016040523d82523d6000602084013e61167a565b606091505b5080516000036116ce576040517f64a0ae9200000000000000000000000000000000000000000000000000000000815273ffffffffffffffffffffffffffffffffffffffff85166004820152602401610750565b805181602001fd5b7fffffffff0000000000000000000000000000000000000000000000000000000081167f150b7a020000000000000000000000000000000000000000000000000000000014611769576040517f64a0ae9200000000000000000000000000000000000000000000000000000000815273ffffffffffffffffffffffffffffffffffffffff85166004820152602401610750565b5050505050565b611778611db6565b6107008282611e1d565b61081c611db6565b611792611db6565b61081c611e60565b6117a2611db6565b6109ca81611eb1565b60607f0542a41881ee128a365a727b282c86fa859579490b9bb45aab8503648c8e79006117d783610df2565b50600083815260208290526040812080546117f190612b6d565b80601f016020809104026020016040519081016040528092919081815260200182805461181d90612b6d565b801561186a5780601f1061183f5761010080835404028352916020019161186a565b820191906000526020600020905b81548152906001019060200180831161184d57829003601f168201915b50505050509050600061188860408051602081019091526000815290565b9050805160000361189b57509392505050565b8151156118ce5780826040516020016118b5929190612dfe565b6040516020818303038152906040529350505050919050565b6118d785611f09565b95945050505050565b610700828260405180602001604052806000815250611f7d565b60007fffffffff0000000000000000000000000000000000000000000000000000000082167f80ac58cd00000000000000000000000000000000000000000000000000000000148061198d57507fffffffff0000000000000000000000000000000000000000000000000000000082167f5b5e139f00000000000000000000000000000000000000000000000000000000145b806105e457507f01ffc9a7000000000000000000000000000000000000000000000000000000007fffffffff000000000000000000000000000000000000000000000000000000008316146105e4565b7f80bb2b638cc20bc4d0a60d66940f3ab4a00c1d7b313497ca82fb0b4ab00793008180611a1f575073ffffffffffffffffffffffffffffffffffffffff831615155b15611b93576000611a2f85610df2565b905073ffffffffffffffffffffffffffffffffffffffff841615801590611a8257508373ffffffffffffffffffffffffffffffffffffffff168173ffffffffffffffffffffffffffffffffffffffff1614155b8015611ae0575073ffffffffffffffffffffffffffffffffffffffff80821660009081527f80bb2b638cc20bc4d0a60d66940f3ab4a00c1d7b313497ca82fb0b4ab0079305602090815260408083209388168352929052205460ff16155b15611b2f576040517fa9fbf51f00000000000000000000000000000000000000000000000000000000815273ffffffffffffffffffffffffffffffffffffffff85166004820152602401610750565b8215611b9157848673ffffffffffffffffffffffffffffffffffffffff168273ffffffffffffffffffffffffffffffffffffffff167f8c5be1e5ebec7d5bd14f71427d1e84f3dd0314c0f7b2291e5b200ac8c7c3b92560405160405180910390a45b505b600093845260040160205250506040902080547fffffffffffffffffffffffff00000000000000000000000000000000000000001673ffffffffffffffffffffffffffffffffffffffff92909216919091179055565b7fcd5ed15c6e187e77e9aee88184c21f4f2182ab5827cb3b7e07fbedcd63f033005460ff161561081c576040517fd93c066500000000000000000000000000000000000000000000000000000000815260040160405180910390fd5b6000611c4f611be9565b611c5a848484611f94565b949350505050565b7fcd5ed15c6e187e77e9aee88184c21f4f2182ab5827cb3b7e07fbedcd63f033005460ff1661081c576040517f8dfc202b00000000000000000000000000000000000000000000000000000000815260040160405180910390fd5b611cc682612159565b60405173ffffffffffffffffffffffffffffffffffffffff8316907fbc7cd75a20ee27fd9adebab32041f755214dbc6bffa90cc0225b39da2e5c2d3b90600090a2805115611d18576108398282612228565b6107006122a2565b7f9016d09d72d40fdae2fd8ceac6b6234c7706214fd39c1cd1e609a0528c19930080547fffffffffffffffffffffffff0000000000000000000000000000000000000000811673ffffffffffffffffffffffffffffffffffffffff848116918217845560405192169182907f8be0079c531659141344cd1fd0a4f28419497f9722a3daafe3b4186f6b6457e090600090a3505050565b7ff0c57e16840df040f15088dc2f81fe391c3923bec73e23a9662efc9c229c6a005468010000000000000000900460ff1661081c576040517fd7e6bcf800000000000000000000000000000000000000000000000000000000815260040160405180910390fd5b611e25611db6565b7f80bb2b638cc20bc4d0a60d66940f3ab4a00c1d7b313497ca82fb0b4ab007930080611e518482612c65565b50600181016107f48382612c65565b611e68611db6565b7fcd5ed15c6e187e77e9aee88184c21f4f2182ab5827cb3b7e07fbedcd63f0330080547fffffffffffffffffffffffffffffffffffffffffffffffffffffffffffffff00169055565b611eb9611db6565b73ffffffffffffffffffffffffffffffffffffffff81166109c1576040517f1e4fbdf700000000000000000000000000000000000000000000000000000000815260006004820152602401610750565b6060611f1482610df2565b506000611f2c60408051602081019091526000815290565b90506000815111611f4c5760405180602001604052806000815250610f6c565b80611f56846122da565b604051602001611f67929190612dfe565b6040516020818303038152906040529392505050565b611f878383612398565b6108396000848484611579565b60008281527f80bb2b638cc20bc4d0a60d66940f3ab4a00c1d7b313497ca82fb0b4ab007930260205260408120547f80bb2b638cc20bc4d0a60d66940f3ab4a00c1d7b313497ca82fb0b4ab00793009073ffffffffffffffffffffffffffffffffffffffff9081169084161561200f5761200f818587612449565b73ffffffffffffffffffffffffffffffffffffffff811615612087576120396000866000806119dd565b73ffffffffffffffffffffffffffffffffffffffff81166000908152600383016020526040902080547fffffffffffffffffffffffffffffffffffffffffffffffffffffffffffffffff0190555b73ffffffffffffffffffffffffffffffffffffffff8616156120d25773ffffffffffffffffffffffffffffffffffffffff861660009081526003830160205260409020805460010190555b600085815260028301602052604080822080547fffffffffffffffffffffffff00000000000000000000000000000000000000001673ffffffffffffffffffffffffffffffffffffffff8a811691821790925591518893918516917fddf252ad1be2c89b69c2b068fc378daa952ba7f163c4a11628f55a4df523b3ef91a495945050505050565b8073ffffffffffffffffffffffffffffffffffffffff163b6000036121c2576040517f4c9c8ce300000000000000000000000000000000000000000000000000000000815273ffffffffffffffffffffffffffffffffffffffff82166004820152602401610750565b7f360894a13ba1a3210667c828492db98dca3e2076cc3735a920a3ca505d382bbc80547fffffffffffffffffffffffff00000000000000000000000000000000000000001673ffffffffffffffffffffffffffffffffffffffff92909216919091179055565b60606000808473ffffffffffffffffffffffffffffffffffffffff16846040516122529190612e2d565b600060405180830381855af49150503d806000811461228d576040519150601f19603f3d011682016040523d82523d6000602084013e612292565b606091505b50915091506118d78583836124f9565b341561081c576040517fb398979f00000000000000000000000000000000000000000000000000000000815260040160405180910390fd5b606060006122e783612588565b600101905060008167ffffffffffffffff81111561230757612307612922565b6040519080825280601f01601f191660200182016040528015612331576020820181803683370190505b5090508181016020015b7fffffffffffffffffffffffffffffffffffffffffffffffffffffffffffffffff017f3031323334353637383961626364656600000000000000000000000000000000600a86061a8153600a850494508461233b57509392505050565b73ffffffffffffffffffffffffffffffffffffffff82166123e8576040517f64a0ae9200000000000000000000000000000000000000000000000000000000815260006004820152602401610750565b60006123f683836000610e7d565b905073ffffffffffffffffffffffffffffffffffffffff811615610839576040517f73c6ac6e00000000000000000000000000000000000000000000000000000000815260006004820152602401610750565b61245483838361266a565b6108395773ffffffffffffffffffffffffffffffffffffffff83166124a8576040517f7e27328900000000000000000000000000000000000000000000000000000000815260048101829052602401610750565b6040517f177e802f00000000000000000000000000000000000000000000000000000000815273ffffffffffffffffffffffffffffffffffffffff8316600482015260248101829052604401610750565b60608261250e576125098261276c565b610f6c565b8151158015612532575073ffffffffffffffffffffffffffffffffffffffff84163b155b15612581576040517f9996b31500000000000000000000000000000000000000000000000000000000815273ffffffffffffffffffffffffffffffffffffffff85166004820152602401610750565b5080610f6c565b6000807a184f03e93ff9f4daa797ed6e38ed64bf6a1f01000000000000000083106125d1577a184f03e93ff9f4daa797ed6e38ed64bf6a1f010000000000000000830492506040015b6d04ee2d6d415b85acef810000000083106125fd576d04ee2d6d415b85acef8100000000830492506020015b662386f26fc10000831061261b57662386f26fc10000830492506010015b6305f5e1008310612633576305f5e100830492506008015b612710831061264757612710830492506004015b60648310612659576064830492506002015b600a83106105e45760010192915050565b600073ffffffffffffffffffffffffffffffffffffffff831615801590611c5a57508273ffffffffffffffffffffffffffffffffffffffff168473ffffffffffffffffffffffffffffffffffffffff161480612717575073ffffffffffffffffffffffffffffffffffffffff80851660009081527f80bb2b638cc20bc4d0a60d66940f3ab4a00c1d7b313497ca82fb0b4ab0079305602090815260408083209387168352929052205460ff165b80611c5a57505060009081527f80bb2b638cc20bc4d0a60d66940f3ab4a00c1d7b313497ca82fb0b4ab0079304602052604090205473ffffffffffffffffffffffffffffffffffffffff908116911614919050565b80511561277c5780518082602001fd5b6040517f1425ea4200000000000000000000000000000000000000000000000000000000815260040160405180910390fd5b7fffffffff00000000000000000000000000000000000000000000000000000000811681146109ca57600080fd5b6000602082840312156127ee57600080fd5b8135610f6c816127ae565b60005b838110156128145781810151838201526020016127fc565b50506000910152565b600081518084526128358160208601602086016127f9565b601f017fffffffffffffffffffffffffffffffffffffffffffffffffffffffffffffffe0169290920160200192915050565b602081526000610f6c602083018461281d565b60006020828403121561288c57600080fd5b5035919050565b803573ffffffffffffffffffffffffffffffffffffffff811681146128b757600080fd5b919050565b600080604083850312156128cf57600080fd5b6128d883612893565b946020939093013593505050565b6000806000606084860312156128fb57600080fd5b61290484612893565b925061291260208501612893565b9150604084013590509250925092565b7f4e487b7100000000000000000000000000000000000000000000000000000000600052604160045260246000fd5b600082601f83011261296257600080fd5b813567ffffffffffffffff8082111561297d5761297d612922565b604051601f83017fffffffffffffffffffffffffffffffffffffffffffffffffffffffffffffffe0908116603f011681019082821181831017156129c3576129c3612922565b816040528381528660208588010111156129dc57600080fd5b836020870160208301376000602085830101528094505050505092915050565b60008060408385031215612a0f57600080fd5b82359150602083013567ffffffffffffffff811115612a2d57600080fd5b612a3985828601612951565b9150509250929050565b60008060408385031215612a5657600080fd5b612a5f83612893565b9150602083013567ffffffffffffffff811115612a2d57600080fd5b600060208284031215612a8d57600080fd5b610f6c82612893565b60008060408385031215612aa957600080fd5b612ab283612893565b915060208301358015158114612ac757600080fd5b809150509250929050565b60008060008060808587031215612ae857600080fd5b612af185612893565b9350612aff60208601612893565b925060408501359150606085013567ffffffffffffffff811115612b2257600080fd5b612b2e87828801612951565b91505092959194509250565b60008060408385031215612b4d57600080fd5b612b5683612893565b9150612b6460208401612893565b90509250929050565b600181811c90821680612b8157607f821691505b602082108103612bba577f4e487b7100000000000000000000000000000000000000000000000000000000600052602260045260246000fd5b50919050565b60007fffffffffffffffffffffffffffffffffffffffffffffffffffffffffffffffff8203612c18577f4e487b7100000000000000000000000000000000000000000000000000000000600052601160045260246000fd5b5060010190565b601f82111561083957600081815260208120601f850160051c81016020861015612c465750805b601f850160051c820191505b81811015610c7857828155600101612c52565b815167ffffffffffffffff811115612c7f57612c7f612922565b612c9381612c8d8454612b6d565b84612c1f565b602080601f831160018114612ce65760008415612cb05750858301515b7fffffffffffffffffffffffffffffffffffffffffffffffffffffffffffffffff600386901b1c1916600185901b178555610c78565b6000858152602081207fffffffffffffffffffffffffffffffffffffffffffffffffffffffffffffffe08616915b82811015612d3357888601518255948401946001909101908401612d14565b5085821015612d6f57878501517fffffffffffffffffffffffffffffffffffffffffffffffffffffffffffffffff600388901b60f8161c191681555b5050505050600190811b01905550565b600060208284031215612d9157600080fd5b5051919050565b600073ffffffffffffffffffffffffffffffffffffffff808716835280861660208401525083604083015260806060830152612dd7608083018461281d565b9695505050505050565b600060208284031215612df357600080fd5b8151610f6c816127ae565b60008351612e108184602088016127f9565b835190830190612e248183602088016127f9565b01949350505050565b60008251612e3f8184602087016127f9565b919091019291505056fea26469706673582212205dda60edb4204ced4cfbc84335ea8a6587fb719d70fe741a8a10c3895145a3e964736f6c63430008140033",
  "linkReferences": {},
  "deployedLinkReferences": {}
}