{
  "abi": [
    {
      "inputs": [
        {
          "internalType": "address",
          "name": "target",
          "type": "address"
        }
      ],
      "name": "AddressEmptyCode",
      "type": "error"
    },
    {
      "inputs": [],
      "name": "CalyptusNFT_TransferNotAllowed",
      "type": "error"
    },
    {
      "inputs": [
        {
          "internalType": "address",
          "name": "implementation",
          "type": "address"
        }
      ],
      "name": "ERC1967InvalidImplementation",
      "type": "error"
    },
    {
      "inputs": [],
      "name": "ERC1967NonPayable",
      "type": "error"
    },
    {
      "inputs": [
        {
          "internalType": "address",
          "name": "sender",
          "type": "address"
        },
        {
          "internalType": "uint256",
          "name": "tokenId",
          "type": "uint256"
        },
        {
          "internalType": "address",
          "name": "owner",
          "type": "address"
        }
      ],
      "name": "ERC721IncorrectOwner",
      "type": "error"
    },
    {
      "inputs": [
        {
          "internalType": "address",
          "name": "operator",
          "type": "address"
        },
        {
          "internalType": "uint256",
          "name": "tokenId",
          "type": "uint256"
        }
      ],
      "name": "ERC721InsufficientApproval",
      "type": "error"
    },
    {
      "inputs": [
        {
          "internalType": "address",
          "name": "approver",
          "type": "address"
        }
      ],
      "name": "ERC721InvalidApprover",
      "type": "error"
    },
    {
      "inputs": [
        {
          "internalType": "address",
          "name": "operator",
          "type": "address"
        }
      ],
      "name": "ERC721InvalidOperator",
      "type": "error"
    },
    {
      "inputs": [
        {
          "internalType": "address",
          "name": "owner",
          "type": "address"
        }
      ],
      "name": "ERC721InvalidOwner",
      "type": "error"
    },
    {
      "inputs": [
        {
          "internalType": "address",
          "name": "receiver",
          "type": "address"
        }
      ],
      "name": "ERC721InvalidReceiver",
      "type": "error"
    },
    {
      "inputs": [
        {
          "internalType": "address",
          "name": "sender",
          "type": "address"
        }
      ],
      "name": "ERC721InvalidSender",
      "type": "error"
    },
    {
      "inputs": [
        {
          "internalType": "uint256",
          "name": "tokenId",
          "type": "uint256"
        }
      ],
      "name": "ERC721NonexistentToken",
      "type": "error"
    },
    {
      "inputs": [],
      "name": "EnforcedPause",
      "type": "error"
    },
    {
      "inputs": [],
      "name": "ExpectedPause",
      "type": "error"
    },
    {
      "inputs": [],
      "name": "FailedInnerCall",
      "type": "error"
    },
    {
      "inputs": [],
      "name": "InvalidInitialization",
      "type": "error"
    },
    {
      "inputs": [],
      "name": "NotInitializing",
      "type": "error"
    },
    {
      "inputs": [
        {
          "internalType": "address",
          "name": "owner",
          "type": "address"
        }
      ],
      "name": "OwnableInvalidOwner",
      "type": "error"
    },
    {
      "inputs": [
        {
          "internalType": "address",
          "name": "account",
          "type": "address"
        }
      ],
      "name": "OwnableUnauthorizedAccount",
      "type": "error"
    },
    {
      "inputs": [],
      "name": "UUPSUnauthorizedCallContext",
      "type": "error"
    },
    {
      "inputs": [
        {
          "internalType": "bytes32",
          "name": "slot",
          "type": "bytes32"
        }
      ],
      "name": "UUPSUnsupportedProxiableUUID",
      "type": "error"
    },
    {
      "anonymous": false,
      "inputs": [
        {
          "indexed": true,
          "internalType": "address",
          "name": "owner",
          "type": "address"
        },
        {
          "indexed": true,
          "internalType": "address",
          "name": "approved",
          "type": "address"
        },
        {
          "indexed": true,
          "internalType": "uint256",
          "name": "tokenId",
          "type": "uint256"
        }
      ],
      "name": "Approval",
      "type": "event"
    },
    {
      "anonymous": false,
      "inputs": [
        {
          "indexed": true,
          "internalType": "address",
          "name": "owner",
          "type": "address"
        },
        {
          "indexed": true,
          "internalType": "address",
          "name": "operator",
          "type": "address"
        },
        {
          "indexed": false,
          "internalType": "bool",
          "name": "approved",
          "type": "bool"
        }
      ],
      "name": "ApprovalForAll",
      "type": "event"
    },
    {
      "anonymous": false,
      "inputs": [
        {
          "indexed": false,
          "internalType": "uint256",
          "name": "_fromTokenId",
          "type": "uint256"
        },
        {
          "indexed": false,
          "internalType": "uint256",
          "name": "_toTokenId",
          "type": "uint256"
        }
      ],
      "name": "BatchMetadataUpdate",
      "type": "event"
    },
    {
      "anonymous": false,
      "inputs": [
        {
          "indexed": false,
          "internalType": "uint64",
          "name": "version",
          "type": "uint64"
        }
      ],
      "name": "Initialized",
      "type": "event"
    },
    {
      "anonymous": false,
      "inputs": [
        {
          "indexed": false,
          "internalType": "uint256",
          "name": "_tokenId",
          "type": "uint256"
        }
      ],
      "name": "MetadataUpdate",
      "type": "event"
    },
    {
      "anonymous": false,
      "inputs": [
        {
          "indexed": true,
          "internalType": "address",
          "name": "previousOwner",
          "type": "address"
        },
        {
          "indexed": true,
          "internalType": "address",
          "name": "newOwner",
          "type": "address"
        }
      ],
      "name": "OwnershipTransferred",
      "type": "event"
    },
    {
      "anonymous": false,
      "inputs": [
        {
          "indexed": false,
          "internalType": "address",
          "name": "account",
          "type": "address"
        }
      ],
      "name": "Paused",
      "type": "event"
    },
    {
      "anonymous": false,
      "inputs": [
        {
          "indexed": true,
          "internalType": "address",
          "name": "from",
          "type": "address"
        },
        {
          "indexed": true,
          "internalType": "address",
          "name": "to",
          "type": "address"
        },
        {
          "indexed": true,
          "internalType": "uint256",
          "name": "tokenId",
          "type": "uint256"
        }
      ],
      "name": "Transfer",
      "type": "event"
    },
    {
      "anonymous": false,
      "inputs": [
        {
          "indexed": false,
          "internalType": "address",
          "name": "account",
          "type": "address"
        }
      ],
      "name": "Unpaused",
      "type": "event"
    },
    {
      "anonymous": false,
      "inputs": [
        {
          "indexed": true,
          "internalType": "address",
          "name": "implementation",
          "type": "address"
        }
      ],
      "name": "Upgraded",
      "type": "event"
    },
    {
      "inputs": [],
      "name": "UPGRADE_INTERFACE_VERSION",
      "outputs": [
        {
          "internalType": "string",
          "name": "",
          "type": "string"
        }
      ],
      "stateMutability": "view",
      "type": "function"
    },
    {
      "inputs": [
        {
          "internalType": "address",
          "name": "to",
          "type": "address"
        },
        {
          "internalType": "uint256",
          "name": "tokenId",
          "type": "uint256"
        }
      ],
      "name": "approve",
      "outputs": [],
      "stateMutability": "nonpayable",
      "type": "function"
    },
    {
      "inputs": [
        {
          "internalType": "address",
          "name": "owner",
          "type": "address"
        }
      ],
      "name": "balanceOf",
      "outputs": [
        {
          "internalType": "uint256",
          "name": "",
          "type": "uint256"
        }
      ],
      "stateMutability": "view",
      "type": "function"
    },
    {
      "inputs": [
        {
          "internalType": "uint256",
          "name": "tokenId",
          "type": "uint256"
        }
      ],
      "name": "burn",
      "outputs": [],
      "stateMutability": "nonpayable",
      "type": "function"
    },
    {
      "inputs": [
        {
          "internalType": "uint256",
          "name": "tokenId",
          "type": "uint256"
        }
      ],
      "name": "getApproved",
      "outputs": [
        {
          "internalType": "address",
          "name": "",
          "type": "address"
        }
      ],
      "stateMutability": "view",
      "type": "function"
    },
    {
      "inputs": [
        {
          "internalType": "address",
          "name": "initialOwner",
          "type": "address"
        }
      ],
      "name": "initialize",
      "outputs": [],
      "stateMutability": "nonpayable",
      "type": "function"
    },
    {
      "inputs": [
        {
          "internalType": "address",
          "name": "owner",
          "type": "address"
        },
        {
          "internalType": "address",
          "name": "operator",
          "type": "address"
        }
      ],
      "name": "isApprovedForAll",
      "outputs": [
        {
          "internalType": "bool",
          "name": "",
          "type": "bool"
        }
      ],
      "stateMutability": "view",
      "type": "function"
    },
    {
      "inputs": [],
      "name": "name",
      "outputs": [
        {
          "internalType": "string",
          "name": "",
          "type": "string"
        }
      ],
      "stateMutability": "view",
      "type": "function"
    },
    {
      "inputs": [],
      "name": "nextTokenId",
      "outputs": [
        {
          "internalType": "uint256",
          "name": "",
          "type": "uint256"
        }
      ],
      "stateMutability": "view",
      "type": "function"
    },
    {
      "inputs": [],
      "name": "owner",
      "outputs": [
        {
          "internalType": "address",
          "name": "",
          "type": "address"
        }
      ],
      "stateMutability": "view",
      "type": "function"
    },
    {
      "inputs": [
        {
          "internalType": "uint256",
          "name": "tokenId",
          "type": "uint256"
        }
      ],
      "name": "ownerOf",
      "outputs": [
        {
          "internalType": "address",
          "name": "",
          "type": "address"
        }
      ],
      "stateMutability": "view",
      "type": "function"
    },
    {
      "inputs": [],
      "name": "pause",
      "outputs": [],
      "stateMutability": "nonpayable",
      "type": "function"
    },
    {
      "inputs": [],
      "name": "paused",
      "outputs": [
        {
          "internalType": "bool",
          "name": "",
          "type": "bool"
        }
      ],
      "stateMutability": "view",
      "type": "function"
    },
    {
      "inputs": [],
      "name": "proxiableUUID",
      "outputs": [
        {
          "internalType": "bytes32",
          "name": "",
          "type": "bytes32"
        }
      ],
      "stateMutability": "view",
      "type": "function"
    },
    {
      "inputs": [],
      "name": "renounceOwnership",
      "outputs": [],
      "stateMutability": "nonpayable",
      "type": "function"
    },
    {
      "inputs": [
        {
          "internalType": "address",
          "name": "to",
          "type": "address"
        },
        {
          "internalType": "string",
          "name": "uri",
          "type": "string"
        }
      ],
      "name": "safeMint",
      "outputs": [],
      "stateMutability": "nonpayable",
      "type": "function"
    },
    {
      "inputs": [
        {
          "internalType": "address",
          "name": "from",
          "type": "address"
        },
        {
          "internalType": "address",
          "name": "to",
          "type": "address"
        },
        {
          "internalType": "uint256",
          "name": "tokenId",
          "type": "uint256"
        }
      ],
      "name": "safeTransferFrom",
      "outputs": [],
      "stateMutability": "nonpayable",
      "type": "function"
    },
    {
      "inputs": [
        {
          "internalType": "address",
          "name": "from",
          "type": "address"
        },
        {
          "internalType": "address",
          "name": "to",
          "type": "address"
        },
        {
          "internalType": "uint256",
          "name": "tokenId",
          "type": "uint256"
        },
        {
          "internalType": "bytes",
          "name": "data",
          "type": "bytes"
        }
      ],
      "name": "safeTransferFrom",
      "outputs": [],
      "stateMutability": "nonpayable",
      "type": "function"
    },
    {
      "inputs": [
        {
          "internalType": "address",
          "name": "operator",
          "type": "address"
        },
        {
          "internalType": "bool",
          "name": "approved",
          "type": "bool"
        }
      ],
      "name": "setApprovalForAll",
      "outputs": [],
      "stateMutability": "nonpayable",
      "type": "function"
    },
    {
      "inputs": [
        {
          "internalType": "bytes4",
          "name": "interfaceId",
          "type": "bytes4"
        }
      ],
      "name": "supportsInterface",
      "outputs": [
        {
          "internalType": "bool",
          "name": "",
          "type": "bool"
        }
      ],
      "stateMutability": "view",
      "type": "function"
    },
    {
      "inputs": [],
      "name": "symbol",
      "outputs": [
        {
          "internalType": "string",
          "name": "",
          "type": "string"
        }
      ],
      "stateMutability": "view",
      "type": "function"
    },
    {
      "inputs": [
        {
          "internalType": "uint256",
          "name": "tokenId",
          "type": "uint256"
        }
      ],
      "name": "tokenURI",
      "outputs": [
        {
          "internalType": "string",
          "name": "",
          "type": "string"
        }
      ],
      "stateMutability": "view",
      "type": "function"
    },
    {
      "inputs": [
        {
          "internalType": "address",
          "name": "from",
          "type": "address"
        },
        {
          "internalType": "address",
          "name": "to",
          "type": "address"
        },
        {
          "internalType": "uint256",
          "name": "tokenId",
          "type": "uint256"
        }
      ],
      "name": "transferFrom",
      "outputs": [],
      "stateMutability": "nonpayable",
      "type": "function"
    },
    {
      "inputs": [
        {
          "internalType": "address",
          "name": "newOwner",
          "type": "address"
        }
      ],
      "name": "transferOwnership",
      "outputs": [],
      "stateMutability": "nonpayable",
      "type": "function"
    },
    {
      "inputs": [],
      "name": "unpause",
      "outputs": [],
      "stateMutability": "nonpayable",
      "type": "function"
    },
    {
      "inputs": [
        {
          "internalType": "uint256",
          "name": "tokenId",
          "type": "uint256"
        },
        {
          "internalType": "string",
          "name": "uri",
          "type": "string"
        }
      ],
      "name": "updateURI",
      "outputs": [],
      "stateMutability": "nonpayable",
      "type": "function"
    },
    {
      "inputs": [
        {
          "internalType": "address",
          "name": "newImplementation",
          "type": "address"
        },
        {
          "internalType": "bytes",
          "name": "data",
          "type": "bytes"
        }
      ],
      "name": "upgradeToAndCall",
      "outputs": [],
      "stateMutability": "payable",
      "type": "function"
    }
  ],
  "bytecode": {
    "object": "0x60a06040523060805234801561001457600080fd5b5060805161210461003e60003960008181610c8301528181610cac0152610ded01526121046000f3fe60806040526004361061019c5760003560e01c806370a08231116100ec578063ad3cb1cc1161008a578063c87b56dd11610064578063c87b56dd1461047d578063d204c45e1461049d578063e985e9c5146104bd578063f2fde38b146104dd57600080fd5b8063ad3cb1cc1461040c578063b88d4fde1461043d578063c4d66de81461045d57600080fd5b80638456cb59116100c65780638456cb59146103ad5780638da5cb5b146103c257806395d89b41146103d7578063a22cb465146103ec57600080fd5b806370a0823114610362578063715018a61461038257806375794a3c1461039757600080fd5b80633f4ba83a116101595780634f1ef286116101335780634f1ef286146102e757806352d1902d146102fa5780635c975abb1461031d5780636352211e1461034257600080fd5b80633f4ba83a1461029257806342842e0e146102a757806342966c68146102c757600080fd5b806301ffc9a7146101a157806306fdde03146101d6578063081812fc146101f8578063095ea7b31461023057806323b872dd1461025257806331d41c6914610272575b600080fd5b3480156101ad57600080fd5b506101c16101bc366004611b1a565b6104fd565b60405190151581526020015b60405180910390f35b3480156101e257600080fd5b506101eb61050e565b6040516101cd9190611b87565b34801561020457600080fd5b50610218610213366004611b9a565b6105b2565b6040516001600160a01b0390911681526020016101cd565b34801561023c57600080fd5b5061025061024b366004611bcf565b6105c7565b005b34801561025e57600080fd5b5061025061026d366004611bf9565b6105d6565b34801561027e57600080fd5b5061025061028d366004611cd8565b610666565b34801561029e57600080fd5b50610250610678565b3480156102b357600080fd5b506102506102c2366004611bf9565b61068a565b3480156102d357600080fd5b506102506102e2366004611b9a565b6106aa565b6102506102f5366004611d1f565b6106b6565b34801561030657600080fd5b5061030f6106d1565b6040519081526020016101cd565b34801561032957600080fd5b506000805160206120af8339815191525460ff166101c1565b34801561034e57600080fd5b5061021861035d366004611b9a565b6106ee565b34801561036e57600080fd5b5061030f61037d366004611d57565b6106f9565b34801561038e57600080fd5b50610250610755565b3480156103a357600080fd5b5061030f60005481565b3480156103b957600080fd5b50610250610767565b3480156103ce57600080fd5b50610218610777565b3480156103e357600080fd5b506101eb6107a5565b3480156103f857600080fd5b50610250610407366004611d72565b6107e4565b34801561041857600080fd5b506101eb604051806040016040528060058152602001640352e302e360dc1b81525081565b34801561044957600080fd5b50610250610458366004611dae565b6107ef565b34801561046957600080fd5b50610250610478366004611d57565b610806565b34801561048957600080fd5b506101eb610498366004611b9a565b61096f565b3480156104a957600080fd5b506102506104b8366004611d1f565b61097a565b3480156104c957600080fd5b506101c16104d8366004611e16565b6109ab565b3480156104e957600080fd5b506102506104f8366004611d57565b6109f8565b600061050882610a36565b92915050565b60008051602061206f833981519152805460609190819061052e90611e49565b80601f016020809104026020016040519081016040528092919081815260200182805461055a90611e49565b80156105a75780601f1061057c576101008083540402835291602001916105a7565b820191906000526020600020905b81548152906001019060200180831161058a57829003601f168201915b505050505091505090565b60006105bd82610a5b565b5061050882610a93565b6105d2828233610acd565b5050565b6001600160a01b03821661060557604051633250574960e11b8152600060048201526024015b60405180910390fd5b6000610612838333610ada565b9050836001600160a01b0316816001600160a01b031614610660576040516364283d7b60e01b81526001600160a01b03808616600483015260248201849052821660448201526064016105fc565b50505050565b61066e610b73565b6105d28282610ba5565b610680610b73565b610688610c18565b565b6106a5838383604051806020016040528060008152506107ef565b505050565b6105d260008233610ada565b6106be610c78565b6106c782610d1d565b6105d28282610d25565b60006106db610de2565b5060008051602061208f83398151915290565b600061050882610a5b565b600060008051602061206f8339815191526001600160a01b038316610734576040516322718ad960e21b8152600060048201526024016105fc565b6001600160a01b039092166000908152600390920160205250604090205490565b61075d610b73565b6106886000610e2b565b61076f610b73565b610688610e9c565b7f9016d09d72d40fdae2fd8ceac6b6234c7706214fd39c1cd1e609a0528c199300546001600160a01b031690565b7f80bb2b638cc20bc4d0a60d66940f3ab4a00c1d7b313497ca82fb0b4ab0079301805460609160008051602061206f8339815191529161052e90611e49565b6105d2338383610ee5565b6107fa8484846105d6565b61066084848484610f96565b7ff0c57e16840df040f15088dc2f81fe391c3923bec73e23a9662efc9c229c6a008054600160401b810460ff16159067ffffffffffffffff1660008115801561084c5750825b905060008267ffffffffffffffff1660011480156108695750303b155b905081158015610877575080155b156108955760405163f92ee8a960e01b815260040160405180910390fd5b845467ffffffffffffffff1916600117855583156108bf57845460ff60401b1916600160401b1785555b6108f86040518060400160405280600881526020016743616c797074757360c01b815250604051806020016040528060008152506110bf565b6109006110d1565b6109086110d9565b610911866110e9565b6109196110d1565b6109216110d1565b831561096757845460ff60401b19168555604051600181527fc7f505b2f371ae2175ee4913f4499e1f2633a7b5936321eed1cdaeb6115181d29060200160405180910390a15b505050505050565b6060610508826110fa565b610982610b73565b60008054818061099183611e83565b9190505590506109a1838261122f565b6106a58183610ba5565b6001600160a01b0391821660009081527f80bb2b638cc20bc4d0a60d66940f3ab4a00c1d7b313497ca82fb0b4ab00793056020908152604080832093909416825291909152205460ff1690565b610a00610b73565b6001600160a01b038116610a2a57604051631e4fbdf760e01b8152600060048201526024016105fc565b610a3381610e2b565b50565b60006001600160e01b03198216632483248360e11b1480610508575061050882611249565b600080610a6783611299565b90506001600160a01b03811661050857604051637e27328960e01b8152600481018490526024016105fc565b60009081527f80bb2b638cc20bc4d0a60d66940f3ab4a00c1d7b313497ca82fb0b4ab007930460205260409020546001600160a01b031690565b6106a583838360016112d3565b6000610ae46113e9565b6000610aee610777565b90506000610afb85611299565b9050816001600160a01b0316816001600160a01b031614158015610b2757506001600160a01b03811615155b8015610b3b57506001600160a01b03861615155b15610b595760405163dac5b18160e01b815260040160405180910390fd5b6000610b6687878761141a565b93505050505b9392505050565b33610b7c610777565b6001600160a01b0316146106885760405163118cdaa760e01b81523360048201526024016105fc565b60008281527f0542a41881ee128a365a727b282c86fa859579490b9bb45aab8503648c8e790060208190526040909120610bdf8382611ef0565b506040518381527ff8e1a15aba9398e019f0b49df1a4fde98ee17ae345cb5f6b5e2c27f5033e8ce79060200160405180910390a1505050565b610c20611437565b6000805160206120af833981519152805460ff191681557f5db9ee0a495bf2e6ff9c91a7834c1ba4fdd244a5e8aa4e537bd38aeae4b073aa335b6040516001600160a01b03909116815260200160405180910390a150565b306001600160a01b037f0000000000000000000000000000000000000000000000000000000000000000161480610cff57507f00000000000000000000000000000000000000000000000000000000000000006001600160a01b0316610cf360008051602061208f833981519152546001600160a01b031690565b6001600160a01b031614155b156106885760405163703e46dd60e11b815260040160405180910390fd5b610a33610b73565b816001600160a01b03166352d1902d6040518163ffffffff1660e01b8152600401602060405180830381865afa925050508015610d7f575060408051601f3d908101601f19168201909252610d7c91810190611fb0565b60015b610da757604051634c9c8ce360e01b81526001600160a01b03831660048201526024016105fc565b60008051602061208f8339815191528114610dd857604051632a87526960e21b8152600481018290526024016105fc565b6106a58383611467565b306001600160a01b037f000000000000000000000000000000000000000000000000000000000000000016146106885760405163703e46dd60e11b815260040160405180910390fd5b7f9016d09d72d40fdae2fd8ceac6b6234c7706214fd39c1cd1e609a0528c19930080546001600160a01b031981166001600160a01b03848116918217845560405192169182907f8be0079c531659141344cd1fd0a4f28419497f9722a3daafe3b4186f6b6457e090600090a3505050565b610ea46113e9565b6000805160206120af833981519152805460ff191660011781557f62e78cea01bee320cd4e420270b5ea74000d11b0c9f74754ebdbfc544b05a25833610c5a565b60008051602061206f8339815191526001600160a01b038316610f2657604051630b61174360e31b81526001600160a01b03841660048201526024016105fc565b6001600160a01b038481166000818152600584016020908152604080832094881680845294825291829020805460ff191687151590811790915591519182527f17307eab39ab6107e8899845ad3d59bd9653f200f220920489ca2b5937696c31910160405180910390a350505050565b6001600160a01b0383163b1561066057604051630a85bd0160e11b81526001600160a01b0384169063150b7a0290610fd8903390889087908790600401611fc9565b6020604051808303816000875af1925050508015611013575060408051601f3d908101601f1916820190925261101091810190612006565b60015b61107c573d808015611041576040519150601f19603f3d011682016040523d82523d6000602084013e611046565b606091505b50805160000361107457604051633250574960e11b81526001600160a01b03851660048201526024016105fc565b805181602001fd5b6001600160e01b03198116630a85bd0160e11b146110b857604051633250574960e11b81526001600160a01b03851660048201526024016105fc565b5050505050565b6110c76114bd565b6105d28282611506565b6106886114bd565b6110e16114bd565b610688611537565b6110f16114bd565b610a3381611558565b60607f0542a41881ee128a365a727b282c86fa859579490b9bb45aab8503648c8e790061112683610a5b565b506000838152602082905260408120805461114090611e49565b80601f016020809104026020016040519081016040528092919081815260200182805461116c90611e49565b80156111b95780601f1061118e576101008083540402835291602001916111b9565b820191906000526020600020905b81548152906001019060200180831161119c57829003601f168201915b5050505050905060006111d760408051602081019091526000815290565b905080516000036111ea57509392505050565b81511561121d578082604051602001611204929190612023565b6040516020818303038152906040529350505050919050565b61122685611560565b95945050505050565b6105d28282604051806020016040528060008152506115d4565b60006001600160e01b031982166380ac58cd60e01b148061127a57506001600160e01b03198216635b5e139f60e01b145b8061050857506301ffc9a760e01b6001600160e01b0319831614610508565b60009081527f80bb2b638cc20bc4d0a60d66940f3ab4a00c1d7b313497ca82fb0b4ab007930260205260409020546001600160a01b031690565b60008051602061206f83398151915281806112f657506001600160a01b03831615155b156113b857600061130685610a5b565b90506001600160a01b038416158015906113325750836001600160a01b0316816001600160a01b031614155b8015611345575061134381856109ab565b155b1561136e5760405163a9fbf51f60e01b81526001600160a01b03851660048201526024016105fc565b82156113b65784866001600160a01b0316826001600160a01b03167f8c5be1e5ebec7d5bd14f71427d1e84f3dd0314c0f7b2291e5b200ac8c7c3b92560405160405180910390a45b505b600093845260040160205250506040902080546001600160a01b0319166001600160a01b0392909216919091179055565b6000805160206120af8339815191525460ff16156106885760405163d93c066560e01b815260040160405180910390fd5b60006114246113e9565b61142f8484846115eb565b949350505050565b6000805160206120af8339815191525460ff1661068857604051638dfc202b60e01b815260040160405180910390fd5b611470826116f5565b6040516001600160a01b038316907fbc7cd75a20ee27fd9adebab32041f755214dbc6bffa90cc0225b39da2e5c2d3b90600090a28051156114b5576106a5828261175a565b6105d26117c7565b7ff0c57e16840df040f15088dc2f81fe391c3923bec73e23a9662efc9c229c6a0054600160401b900460ff1661068857604051631afcd79f60e31b815260040160405180910390fd5b61150e6114bd565b60008051602061206f833981519152806115288482611ef0565b50600181016106608382611ef0565b61153f6114bd565b6000805160206120af833981519152805460ff19169055565b610a006114bd565b606061156b82610a5b565b50600061158360408051602081019091526000815290565b905060008151116115a35760405180602001604052806000815250610b6c565b806115ad846117e6565b6040516020016115be929190612023565b6040516020818303038152906040529392505050565b6115de8383611879565b6106a56000848484610f96565b600060008051602061206f8339815191528161160685611299565b90506001600160a01b03841615611622576116228185876118de565b6001600160a01b038116156116625761163f6000866000806112d3565b6001600160a01b0381166000908152600383016020526040902080546000190190555b6001600160a01b03861615611693576001600160a01b03861660009081526003830160205260409020805460010190555b600085815260028301602052604080822080546001600160a01b0319166001600160a01b038a811691821790925591518893918516917fddf252ad1be2c89b69c2b068fc378daa952ba7f163c4a11628f55a4df523b3ef91a495945050505050565b806001600160a01b03163b60000361172b57604051634c9c8ce360e01b81526001600160a01b03821660048201526024016105fc565b60008051602061208f83398151915280546001600160a01b0319166001600160a01b0392909216919091179055565b6060600080846001600160a01b0316846040516117779190612052565b600060405180830381855af49150503d80600081146117b2576040519150601f19603f3d011682016040523d82523d6000602084013e6117b7565b606091505b5091509150611226858383611942565b34156106885760405163b398979f60e01b815260040160405180910390fd5b606060006117f38361199e565b600101905060008167ffffffffffffffff81111561181357611813611c35565b6040519080825280601f01601f19166020018201604052801561183d576020820181803683370190505b5090508181016020015b600019016f181899199a1a9b1b9c1cb0b131b232b360811b600a86061a8153600a850494508461184757509392505050565b6001600160a01b0382166118a357604051633250574960e11b8152600060048201526024016105fc565b60006118b183836000610ada565b90506001600160a01b038116156106a5576040516339e3563760e11b8152600060048201526024016105fc565b6118e9838383611a76565b6106a5576001600160a01b03831661191757604051637e27328960e01b8152600481018290526024016105fc565b60405163177e802f60e01b81526001600160a01b0383166004820152602481018290526044016105fc565b6060826119575761195282611adb565b610b6c565b815115801561196e57506001600160a01b0384163b155b1561199757604051639996b31560e01b81526001600160a01b03851660048201526024016105fc565b5080610b6c565b60008072184f03e93ff9f4daa797ed6e38ed64bf6a1f0160401b83106119dd5772184f03e93ff9f4daa797ed6e38ed64bf6a1f0160401b830492506040015b6d04ee2d6d415b85acef81000000008310611a09576d04ee2d6d415b85acef8100000000830492506020015b662386f26fc100008310611a2757662386f26fc10000830492506010015b6305f5e1008310611a3f576305f5e100830492506008015b6127108310611a5357612710830492506004015b60648310611a65576064830492506002015b600a83106105085760010192915050565b60006001600160a01b0383161580159061142f5750826001600160a01b0316846001600160a01b03161480611ab05750611ab084846109ab565b8061142f5750826001600160a01b0316611ac983610a93565b6001600160a01b031614949350505050565b805115611aeb5780518082602001fd5b604051630a12f52160e11b815260040160405180910390fd5b6001600160e01b031981168114610a3357600080fd5b600060208284031215611b2c57600080fd5b8135610b6c81611b04565b60005b83811015611b52578181015183820152602001611b3a565b50506000910152565b60008151808452611b73816020860160208601611b37565b601f01601f19169290920160200192915050565b602081526000610b6c6020830184611b5b565b600060208284031215611bac57600080fd5b5035919050565b80356001600160a01b0381168114611bca57600080fd5b919050565b60008060408385031215611be257600080fd5b611beb83611bb3565b946020939093013593505050565b600080600060608486031215611c0e57600080fd5b611c1784611bb3565b9250611c2560208501611bb3565b9150604084013590509250925092565b634e487b7160e01b600052604160045260246000fd5b600082601f830112611c5c57600080fd5b813567ffffffffffffffff80821115611c7757611c77611c35565b604051601f8301601f19908116603f01168101908282118183101715611c9f57611c9f611c35565b81604052838152866020858801011115611cb857600080fd5b836020870160208301376000602085830101528094505050505092915050565b60008060408385031215611ceb57600080fd5b82359150602083013567ffffffffffffffff811115611d0957600080fd5b611d1585828601611c4b565b9150509250929050565b60008060408385031215611d3257600080fd5b611d3b83611bb3565b9150602083013567ffffffffffffffff811115611d0957600080fd5b600060208284031215611d6957600080fd5b610b6c82611bb3565b60008060408385031215611d8557600080fd5b611d8e83611bb3565b915060208301358015158114611da357600080fd5b809150509250929050565b60008060008060808587031215611dc457600080fd5b611dcd85611bb3565b9350611ddb60208601611bb3565b925060408501359150606085013567ffffffffffffffff811115611dfe57600080fd5b611e0a87828801611c4b565b91505092959194509250565b60008060408385031215611e2957600080fd5b611e3283611bb3565b9150611e4060208401611bb3565b90509250929050565b600181811c90821680611e5d57607f821691505b602082108103611e7d57634e487b7160e01b600052602260045260246000fd5b50919050565b600060018201611ea357634e487b7160e01b600052601160045260246000fd5b5060010190565b601f8211156106a557600081815260208120601f850160051c81016020861015611ed15750805b601f850160051c820191505b8181101561096757828155600101611edd565b815167ffffffffffffffff811115611f0a57611f0a611c35565b611f1e81611f188454611e49565b84611eaa565b602080601f831160018114611f535760008415611f3b5750858301515b600019600386901b1c1916600185901b178555610967565b600085815260208120601f198616915b82811015611f8257888601518255948401946001909101908401611f63565b5085821015611fa05787850151600019600388901b60f8161c191681555b5050505050600190811b01905550565b600060208284031215611fc257600080fd5b5051919050565b6001600160a01b0385811682528416602082015260408101839052608060608201819052600090611ffc90830184611b5b565b9695505050505050565b60006020828403121561201857600080fd5b8151610b6c81611b04565b60008351612035818460208801611b37565b835190830190612049818360208801611b37565b01949350505050565b60008251612064818460208701611b37565b919091019291505056fe80bb2b638cc20bc4d0a60d66940f3ab4a00c1d7b313497ca82fb0b4ab0079300360894a13ba1a3210667c828492db98dca3e2076cc3735a920a3ca505d382bbccd5ed15c6e187e77e9aee88184c21f4f2182ab5827cb3b7e07fbedcd63f03300a2646970667358221220f823405bde61ac78e8f06b326eda2a06a491159a2443d43d8351cd2a2e1b9e8964736f6c63430008150033",
    "linkReferences": {}
  },
  "methodIdentifiers": {
    "UPGRADE_INTERFACE_VERSION()": "ad3cb1cc",
    "approve(address,uint256)": "095ea7b3",
    "balanceOf(address)": "70a08231",
    "burn(uint256)": "42966c68",
    "getApproved(uint256)": "081812fc",
    "initialize(address)": "c4d66de8",
    "isApprovedForAll(address,address)": "e985e9c5",
    "name()": "06fdde03",
    "nextTokenId()": "75794a3c",
    "owner()": "8da5cb5b",
    "ownerOf(uint256)": "6352211e",
    "pause()": "8456cb59",
    "paused()": "5c975abb",
    "proxiableUUID()": "52d1902d",
    "renounceOwnership()": "715018a6",
    "safeMint(address,string)": "d204c45e",
    "safeTransferFrom(address,address,uint256)": "42842e0e",
    "safeTransferFrom(address,address,uint256,bytes)": "b88d4fde",
    "setApprovalForAll(address,bool)": "a22cb465",
    "supportsInterface(bytes4)": "01ffc9a7",
    "symbol()": "95d89b41",
    "tokenURI(uint256)": "c87b56dd",
    "transferFrom(address,address,uint256)": "23b872dd",
    "transferOwnership(address)": "f2fde38b",
    "unpause()": "3f4ba83a",
    "updateURI(uint256,string)": "31d41c69",
    "upgradeToAndCall(address,bytes)": "4f1ef286"
  },
  "id": 26
}